{
  "contractName": "Energy",
  "abi": [
    {
      "inputs": [],
      "stateMutability": "nonpayable",
      "type": "constructor"
    },
    {
      "anonymous": false,
      "inputs": [
        {
          "indexed": true,
          "internalType": "address",
          "name": "producer",
          "type": "address"
        },
        {
          "indexed": false,
          "internalType": "uint64",
          "name": "maxEnergy",
          "type": "uint64"
        },
        {
          "indexed": false,
          "internalType": "uint64",
          "name": "minEnergy",
          "type": "uint64"
        },
        {
          "indexed": true,
          "internalType": "uint32",
          "name": "pricePerUnit",
          "type": "uint32"
        }
      ],
      "name": "BidMade",
      "type": "event"
    },
    {
      "anonymous": false,
      "inputs": [
        {
          "indexed": true,
          "internalType": "address",
          "name": "consumer",
          "type": "address"
        },
        {
          "indexed": true,
          "internalType": "uint64",
          "name": "Energy",
          "type": "uint64"
        },
        {
          "indexed": true,
          "internalType": "uint64",
          "name": "totalPrice",
          "type": "uint64"
        },
        {
          "indexed": false,
          "internalType": "address",
          "name": "producer",
          "type": "address"
        }
      ],
      "name": "DealMade",
      "type": "event"
    },
    {
      "anonymous": false,
      "inputs": [
        {
          "indexed": true,
          "internalType": "address",
          "name": "owner",
          "type": "address"
        }
      ],
      "name": "agentDeregistered",
      "type": "event"
    },
    {
      "anonymous": false,
      "inputs": [
        {
          "indexed": true,
          "internalType": "address",
          "name": "owner",
          "type": "address"
        }
      ],
      "name": "agentRegistered",
      "type": "event"
    },
    {
      "anonymous": false,
      "inputs": [
        {
          "indexed": true,
          "internalType": "address",
          "name": "consumer",
          "type": "address"
        }
      ],
      "name": "consumerDeregistered",
      "type": "event"
    },
    {
      "anonymous": false,
      "inputs": [
        {
          "indexed": true,
          "internalType": "address",
          "name": "consumer",
          "type": "address"
        }
      ],
      "name": "consumerRegistered",
      "type": "event"
    },
    {
      "anonymous": false,
      "inputs": [
        {
          "indexed": true,
          "internalType": "address",
          "name": "producer",
          "type": "address"
        },
        {
          "indexed": true,
          "internalType": "uint256",
          "name": "addedEnergy",
          "type": "uint256"
        }
      ],
      "name": "producerBalanceIncreased",
      "type": "event"
    },
    {
      "anonymous": false,
      "inputs": [
        {
          "indexed": true,
          "internalType": "address",
          "name": "producer",
          "type": "address"
        }
      ],
      "name": "producerDeregistered",
      "type": "event"
    },
    {
      "anonymous": false,
      "inputs": [
        {
          "indexed": true,
          "internalType": "address",
          "name": "producer",
          "type": "address"
        }
      ],
      "name": "producerRegistered",
      "type": "event"
    },
    {
      "inputs": [
        {
          "internalType": "address",
          "name": "",
          "type": "address"
        }
      ],
      "name": "agents",
      "outputs": [
        {
          "internalType": "uint32",
          "name": "",
          "type": "uint32"
        }
      ],
      "stateMutability": "view",
      "type": "function",
      "constant": true
    },
    {
      "inputs": [
        {
          "internalType": "address",
          "name": "",
          "type": "address"
        }
      ],
      "name": "consumers",
      "outputs": [
        {
          "internalType": "uint32",
          "name": "",
          "type": "uint32"
        }
      ],
      "stateMutability": "view",
      "type": "function",
      "constant": true
    },
    {
      "inputs": [],
      "name": "owner",
      "outputs": [
        {
          "internalType": "address",
          "name": "",
          "type": "address"
        }
      ],
      "stateMutability": "view",
      "type": "function",
      "constant": true
    },
    {
      "inputs": [
        {
          "internalType": "address",
          "name": "",
          "type": "address"
        }
      ],
      "name": "producers",
      "outputs": [
        {
          "internalType": "uint32",
          "name": "",
          "type": "uint32"
        }
      ],
      "stateMutability": "view",
      "type": "function",
      "constant": true
    },
    {
      "inputs": [
        {
          "internalType": "address",
          "name": "",
          "type": "address"
        }
      ],
      "name": "userEnergyBalance",
      "outputs": [
        {
          "internalType": "uint256",
          "name": "",
          "type": "uint256"
        }
      ],
      "stateMutability": "view",
      "type": "function",
      "constant": true
    },
    {
      "inputs": [
        {
          "internalType": "address",
          "name": "_agent",
          "type": "address"
        },
        {
          "internalType": "uint32",
          "name": "_id",
          "type": "uint32"
        }
      ],
      "name": "registerAgents",
      "outputs": [],
      "stateMutability": "nonpayable",
      "type": "function"
    },
    {
      "inputs": [
        {
          "internalType": "address",
          "name": "_agent",
          "type": "address"
        },
        {
          "internalType": "uint32",
          "name": "_id",
          "type": "uint32"
        }
      ],
      "name": "deRegisterAgents",
      "outputs": [],
      "stateMutability": "nonpayable",
      "type": "function"
    },
    {
      "inputs": [
        {
          "internalType": "address",
          "name": "_consumer",
          "type": "address"
        },
        {
          "internalType": "uint32",
          "name": "_id",
          "type": "uint32"
        },
        {
          "internalType": "uint256",
          "name": "_energyBalance",
          "type": "uint256"
        }
      ],
      "name": "registerConsumer",
      "outputs": [],
      "stateMutability": "nonpayable",
      "type": "function"
    },
    {
      "inputs": [
        {
          "internalType": "address",
          "name": "_consumer",
          "type": "address"
        },
        {
          "internalType": "uint32",
          "name": "_id",
          "type": "uint32"
        }
      ],
      "name": "deRegisterConsumer",
      "outputs": [],
      "stateMutability": "nonpayable",
      "type": "function"
    },
    {
      "inputs": [
        {
          "internalType": "address",
          "name": "_producer",
          "type": "address"
        },
        {
          "internalType": "uint32",
          "name": "_id",
          "type": "uint32"
        },
        {
          "internalType": "uint256",
          "name": "_energyBalance",
          "type": "uint256"
        }
      ],
      "name": "registerProducer",
      "outputs": [],
      "stateMutability": "nonpayable",
      "type": "function"
    },
    {
      "inputs": [
        {
          "internalType": "address",
          "name": "_producer",
          "type": "address"
        },
        {
          "internalType": "uint32",
          "name": "_id",
          "type": "uint32"
        }
      ],
      "name": "deRegisterProducer",
      "outputs": [],
      "stateMutability": "nonpayable",
      "type": "function"
    },
    {
      "inputs": [
        {
          "internalType": "address",
          "name": "_producer",
          "type": "address"
        },
        {
          "internalType": "uint256",
          "name": "_balanceAmount",
          "type": "uint256"
        }
      ],
      "name": "AddEnergy",
      "outputs": [],
      "stateMutability": "nonpayable",
      "type": "function"
    },
    {
      "inputs": [
        {
          "internalType": "uint32",
          "name": "_price",
          "type": "uint32"
        },
        {
          "internalType": "uint64",
          "name": "_maxEnergy",
          "type": "uint64"
        },
        {
          "internalType": "uint64",
          "name": "_minEnergy",
          "type": "uint64"
        }
      ],
      "name": "OfferEnergy",
      "outputs": [],
      "stateMutability": "nonpayable",
      "type": "function"
    },
    {
      "inputs": [],
      "name": "ShowBids",
      "outputs": [
        {
          "components": [
            {
              "internalType": "address",
              "name": "producer",
              "type": "address"
            },
            {
              "internalType": "uint32",
              "name": "serial",
              "type": "uint32"
            },
            {
              "internalType": "uint32",
              "name": "pricePerUnit",
              "type": "uint32"
            },
            {
              "internalType": "uint64",
              "name": "maxEnergy",
              "type": "uint64"
            },
            {
              "internalType": "uint64",
              "name": "minEnergy",
              "type": "uint64"
            },
            {
              "internalType": "uint256",
              "name": "timestamp",
              "type": "uint256"
            },
            {
              "internalType": "bool",
              "name": "isSold",
              "type": "bool"
            }
          ],
          "internalType": "struct Energy.Bid[]",
          "name": "",
          "type": "tuple[]"
        }
      ],
      "stateMutability": "view",
      "type": "function",
      "constant": true
    },
    {
      "inputs": [
        {
          "internalType": "address",
          "name": "_producer",
          "type": "address"
        },
        {
          "internalType": "uint64",
          "name": "_energy",
          "type": "uint64"
        },
        {
          "internalType": "uint32",
          "name": "_bidSerial",
          "type": "uint32"
        }
      ],
      "name": "BuyEnergy",
      "outputs": [],
      "stateMutability": "payable",
      "type": "function",
      "payable": true
    },
    {
      "inputs": [
        {
          "internalType": "address",
          "name": "_account",
          "type": "address"
        }
      ],
      "name": "getBalance",
      "outputs": [
        {
          "internalType": "uint256",
          "name": "",
          "type": "uint256"
        }
      ],
      "stateMutability": "view",
      "type": "function",
      "constant": true
    }
  ],
  "bytecode": "0x608060405260008060146101000a81548163ffffffff021916908363ffffffff16021790555060008060186101000a81548163ffffffff021916908363ffffffff16021790555034801561005257600080fd5b50336000806101000a81548173ffffffffffffffffffffffffffffffffffffffff021916908373ffffffffffffffffffffffffffffffffffffffff1602179055506001600460008060009054906101000a900473ffffffffffffffffffffffffffffffffffffffff1673ffffffffffffffffffffffffffffffffffffffff1673ffffffffffffffffffffffffffffffffffffffff16815260200190815260200160002060006101000a81548163ffffffff021916908363ffffffff1602179055506130e5806101226000396000f3fe6080604052600436106100f35760003560e01c8063a82469531161008a578063e72cffc911610059578063e72cffc914610301578063ece7ded81461033e578063f8b2cb4f14610369578063fd66091e146103a6576100f3565b8063a82469531461025d578063ba1f640414610286578063bc7cf830146102af578063e1849d8c146102d8576100f3565b806361143446116100c657806361143446146101c45780637de040e0146101e057806386e736ee146102095780638da5cb5b14610232576100f3565b80630bf53668146100f857806326324eff146101355780633ed18bd61461017257806357f1da681461019b575b600080fd5b34801561010457600080fd5b5061011f600480360381019061011a91906120a4565b6103e3565b60405161012c91906120f0565b60405180910390f35b34801561014157600080fd5b5061015c600480360381019061015791906120a4565b610406565b60405161016991906120f0565b60405180910390f35b34801561017e57600080fd5b5061019960048036038101906101949190612137565b610429565b005b3480156101a757600080fd5b506101c260048036038101906101bd91906121ad565b610607565b005b6101de60048036038101906101d99190612240565b610834565b005b3480156101ec57600080fd5b5061020760048036038101906102029190612293565b610e3c565b005b34801561021557600080fd5b50610230600480360381019061022b9190612137565b611387565b005b34801561023e57600080fd5b506102476115a6565b60405161025491906122f5565b60405180910390f35b34801561026957600080fd5b50610284600480360381019061027f9190612310565b6115ca565b005b34801561029257600080fd5b506102ad60048036038101906102a89190612137565b6117a5565b005b3480156102bb57600080fd5b506102d660048036038101906102d191906121ad565b611977565b005b3480156102e457600080fd5b506102ff60048036038101906102fa9190612137565b611ba4565b005b34801561030d57600080fd5b50610328600480360381019061032391906120a4565b611dc3565b604051610335919061235f565b60405180910390f35b34801561034a57600080fd5b50610353611ddb565b604051610360919061250e565b60405180910390f35b34801561037557600080fd5b50610390600480360381019061038b91906120a4565b611f65565b60405161039d919061235f565b60405180910390f35b3480156103b257600080fd5b506103cd60048036038101906103c891906120a4565b611f86565b6040516103da91906120f0565b60405180910390f35b60036020528060005260406000206000915054906101000a900463ffffffff1681565b60026020528060005260406000206000915054906101000a900463ffffffff1681565b60008054906101000a900473ffffffffffffffffffffffffffffffffffffffff1673ffffffffffffffffffffffffffffffffffffffff163373ffffffffffffffffffffffffffffffffffffffff161461048157600080fd5b60018163ffffffff16116104ca576040517f08c379a00000000000000000000000000000000000000000000000000000000081526004016104c19061258d565b60405180910390fd5b6000600460008473ffffffffffffffffffffffffffffffffffffffff1673ffffffffffffffffffffffffffffffffffffffff16815260200190815260200160002060009054906101000a900463ffffffff1663ffffffff1614610562576040517f08c379a00000000000000000000000000000000000000000000000000000000081526004016105599061261f565b60405180910390fd5b80600460008473ffffffffffffffffffffffffffffffffffffffff1673ffffffffffffffffffffffffffffffffffffffff16815260200190815260200160002060006101000a81548163ffffffff021916908363ffffffff1602179055508173ffffffffffffffffffffffffffffffffffffffff167ff13217e8627f8bcd7ed03be82005f679ca6204ad607b28cc53a06458f2acefb160405160405180910390a25050565b6000600460003373ffffffffffffffffffffffffffffffffffffffff1673ffffffffffffffffffffffffffffffffffffffff16815260200190815260200160002060009054906101000a900463ffffffff1663ffffffff161161066957600080fd5b60008263ffffffff16116106b2576040517f08c379a00000000000000000000000000000000000000000000000000000000081526004016106a99061258d565b60405180910390fd5b6000600360008573ffffffffffffffffffffffffffffffffffffffff1673ffffffffffffffffffffffffffffffffffffffff16815260200190815260200160002060009054906101000a900463ffffffff1663ffffffff161461074a576040517f08c379a0000000000000000000000000000000000000000000000000000000008152600401610741906126b1565b60405180910390fd5b81600260008573ffffffffffffffffffffffffffffffffffffffff1673ffffffffffffffffffffffffffffffffffffffff16815260200190815260200160002060006101000a81548163ffffffff021916908363ffffffff16021790555080600560008573ffffffffffffffffffffffffffffffffffffffff1673ffffffffffffffffffffffffffffffffffffffff168152602001908152602001600020819055508273ffffffffffffffffffffffffffffffffffffffff167f769268709e630d5b24d4c651adeae2d7a75c3dd7c3876275233e21570be22fd460405160405180910390a2505050565b6000600360003373ffffffffffffffffffffffffffffffffffffffff1673ffffffffffffffffffffffffffffffffffffffff16815260200190815260200160002060009054906101000a900463ffffffff1663ffffffff161161089657600080fd5b6001805490508163ffffffff16106108e3576040517f08c379a00000000000000000000000000000000000000000000000000000000081526004016108da90612743565b60405180910390fd5b8273ffffffffffffffffffffffffffffffffffffffff1660018263ffffffff168154811061091457610913612763565b5b906000526020600020906004020160000160009054906101000a900473ffffffffffffffffffffffffffffffffffffffff1673ffffffffffffffffffffffffffffffffffffffff161461099c576040517f08c379a000000000000000000000000000000000000000000000000000000000815260040161099390612804565b60405180910390fd5b4260018263ffffffff16815481106109b7576109b6612763565b5b9060005260206000209060040201600201541115610a0a576040517f08c379a0000000000000000000000000000000000000000000000000000000008152600401610a0190612896565b60405180910390fd5b8167ffffffffffffffff1660018263ffffffff1681548110610a2f57610a2e612763565b5b906000526020600020906004020160010160009054906101000a900467ffffffffffffffff1667ffffffffffffffff161015610aa0576040517f08c379a0000000000000000000000000000000000000000000000000000000008152600401610a9790612928565b60405180910390fd5b60018163ffffffff1681548110610aba57610ab9612763565b5b906000526020600020906004020160010160089054906101000a900467ffffffffffffffff1667ffffffffffffffff168267ffffffffffffffff161015610b36576040517f08c379a0000000000000000000000000000000000000000000000000000000008152600401610b2d906129ba565b60405180910390fd5b6000151560018263ffffffff1681548110610b5457610b53612763565b5b906000526020600020906004020160030160009054906101000a900460ff16151514610bb5576040517f08c379a0000000000000000000000000000000000000000000000000000000008152600401610bac90612928565b60405180910390fd5b60008260018363ffffffff1681548110610bd257610bd1612763565b5b906000526020600020906004020160000160189054906101000a900463ffffffff1663ffffffff16610c049190612a09565b90508067ffffffffffffffff163373ffffffffffffffffffffffffffffffffffffffff163111610c69576040517f08c379a0000000000000000000000000000000000000000000000000000000008152600401610c6090612abd565b60405180910390fd5b60018263ffffffff1681548110610c8357610c82612763565b5b906000526020600020906004020160010160009054906101000a900467ffffffffffffffff1667ffffffffffffffff16600560008673ffffffffffffffffffffffffffffffffffffffff1673ffffffffffffffffffffffffffffffffffffffff1681526020019081526020016000206000828254610d019190612add565b925050819055508267ffffffffffffffff16600560003373ffffffffffffffffffffffffffffffffffffffff1673ffffffffffffffffffffffffffffffffffffffff1681526020019081526020016000206000828254610d619190612add565b925050819055508267ffffffffffffffff16600560008673ffffffffffffffffffffffffffffffffffffffff1673ffffffffffffffffffffffffffffffffffffffff1681526020019081526020016000206000828254610dc19190612b33565b92505081905550610dd28482611fa9565b8067ffffffffffffffff168367ffffffffffffffff163373ffffffffffffffffffffffffffffffffffffffff167f7722f8a3e2a6958640bb67e4bc3686d15da301738d24b43d0ff94e9d6293103187604051610e2e91906122f5565b60405180910390a450505050565b6000600260003373ffffffffffffffffffffffffffffffffffffffff1673ffffffffffffffffffffffffffffffffffffffff16815260200190815260200160002060009054906101000a900463ffffffff1663ffffffff1611610e9e57600080fd5b600560003373ffffffffffffffffffffffffffffffffffffffff1673ffffffffffffffffffffffffffffffffffffffff168152602001908152602001600020548267ffffffffffffffff161115610f2a576040517f08c379a0000000000000000000000000000000000000000000000000000000008152600401610f2190612bd9565b60405180910390fd5b60008167ffffffffffffffff1611610f77576040517f08c379a0000000000000000000000000000000000000000000000000000000008152600401610f6e90612c6b565b60405180910390fd5b8167ffffffffffffffff16600560003373ffffffffffffffffffffffffffffffffffffffff1673ffffffffffffffffffffffffffffffffffffffff1681526020019081526020016000206000828254610fd09190612b33565b9250508190555060016040518060e001604052803373ffffffffffffffffffffffffffffffffffffffff168152602001600060149054906101000a900463ffffffff1663ffffffff1681526020018563ffffffff1681526020018467ffffffffffffffff1681526020018367ffffffffffffffff16815260200142815260200160001515815250908060018154018082558091505060019003906000526020600020906004020160009091909190915060008201518160000160006101000a81548173ffffffffffffffffffffffffffffffffffffffff021916908373ffffffffffffffffffffffffffffffffffffffff16021790555060208201518160000160146101000a81548163ffffffff021916908363ffffffff16021790555060408201518160000160186101000a81548163ffffffff021916908363ffffffff16021790555060608201518160010160006101000a81548167ffffffffffffffff021916908367ffffffffffffffff16021790555060808201518160010160086101000a81548167ffffffffffffffff021916908367ffffffffffffffff16021790555060a0820151816002015560c08201518160030160006101000a81548160ff02191690831515021790555050506001600060149054906101000a900463ffffffff1663ffffffff16815481106111cb576111ca612763565b5b906000526020600020906004020160000160189054906101000a900463ffffffff1663ffffffff166001600060149054906101000a900463ffffffff1663ffffffff168154811061121f5761121e612763565b5b906000526020600020906004020160000160009054906101000a900473ffffffffffffffffffffffffffffffffffffffff1673ffffffffffffffffffffffffffffffffffffffff167f593c6ad93467b71d9826ef43e35f6eecd9aaafdc333e5d2a7c5372b6782cba226001600060149054906101000a900463ffffffff1663ffffffff16815481106112b4576112b3612763565b5b906000526020600020906004020160010160009054906101000a900467ffffffffffffffff166001600060149054906101000a900463ffffffff1663ffffffff168154811061130657611305612763565b5b906000526020600020906004020160010160089054906101000a900467ffffffffffffffff1660405161133a929190612c9a565b60405180910390a36001600060148282829054906101000a900463ffffffff166113649190612cc3565b92506101000a81548163ffffffff021916908363ffffffff160217905550505050565b6000600460003373ffffffffffffffffffffffffffffffffffffffff1673ffffffffffffffffffffffffffffffffffffffff16815260200190815260200160002060009054906101000a900463ffffffff1663ffffffff16116113e957600080fd5b60008163ffffffff1611611432576040517f08c379a00000000000000000000000000000000000000000000000000000000081526004016114299061258d565b60405180910390fd5b6000600360008473ffffffffffffffffffffffffffffffffffffffff1673ffffffffffffffffffffffffffffffffffffffff16815260200190815260200160002060009054906101000a900463ffffffff1663ffffffff16116114ca576040517f08c379a00000000000000000000000000000000000000000000000000000000081526004016114c190612d6f565b60405180910390fd5b600360008373ffffffffffffffffffffffffffffffffffffffff1673ffffffffffffffffffffffffffffffffffffffff16815260200190815260200160002060006101000a81549063ffffffff0219169055600560008373ffffffffffffffffffffffffffffffffffffffff1673ffffffffffffffffffffffffffffffffffffffff168152602001908152602001600020600090558173ffffffffffffffffffffffffffffffffffffffff167faba09d491d88bf0ee0f8fc8f0168c0178e7210f18b5f524e052a72f550c4474a60405160405180910390a25050565b60008054906101000a900473ffffffffffffffffffffffffffffffffffffffff1681565b6000600460003373ffffffffffffffffffffffffffffffffffffffff1673ffffffffffffffffffffffffffffffffffffffff16815260200190815260200160002060009054906101000a900463ffffffff1663ffffffff161161162c57600080fd5b6000600260008473ffffffffffffffffffffffffffffffffffffffff1673ffffffffffffffffffffffffffffffffffffffff16815260200190815260200160002060009054906101000a900463ffffffff1663ffffffff16116116c4576040517f08c379a00000000000000000000000000000000000000000000000000000000081526004016116bb90612e01565b60405180910390fd5b60008111611707576040517f08c379a00000000000000000000000000000000000000000000000000000000081526004016116fe90612e6d565b60405180910390fd5b80600560008473ffffffffffffffffffffffffffffffffffffffff1673ffffffffffffffffffffffffffffffffffffffff16815260200190815260200160002060008282546117569190612add565b92505081905550808273ffffffffffffffffffffffffffffffffffffffff167fc3b151ad941a1f863323aa1b4582ac62cf4765b4db11f327b6718a6f7882cea460405160405180910390a35050565b60008054906101000a900473ffffffffffffffffffffffffffffffffffffffff1673ffffffffffffffffffffffffffffffffffffffff163373ffffffffffffffffffffffffffffffffffffffff16146117fd57600080fd5b60018163ffffffff1611611846576040517f08c379a000000000000000000000000000000000000000000000000000000000815260040161183d9061258d565b60405180910390fd5b6000600460008473ffffffffffffffffffffffffffffffffffffffff1673ffffffffffffffffffffffffffffffffffffffff16815260200190815260200160002060009054906101000a900463ffffffff1663ffffffff16036118de576040517f08c379a00000000000000000000000000000000000000000000000000000000081526004016118d590612eff565b60405180910390fd5b600460008373ffffffffffffffffffffffffffffffffffffffff1673ffffffffffffffffffffffffffffffffffffffff16815260200190815260200160002060006101000a81549063ffffffff02191690558173ffffffffffffffffffffffffffffffffffffffff167ff17f08eb97e45bf52d599d89477caec4a12007700bab8e46b34c5fd987e2643260405160405180910390a25050565b6000600460003373ffffffffffffffffffffffffffffffffffffffff1673ffffffffffffffffffffffffffffffffffffffff16815260200190815260200160002060009054906101000a900463ffffffff1663ffffffff16116119d957600080fd5b60008263ffffffff1611611a22576040517f08c379a0000000000000000000000000000000000000000000000000000000008152600401611a199061258d565b60405180910390fd5b6000600360008573ffffffffffffffffffffffffffffffffffffffff1673ffffffffffffffffffffffffffffffffffffffff16815260200190815260200160002060009054906101000a900463ffffffff1663ffffffff1614611aba576040517f08c379a0000000000000000000000000000000000000000000000000000000008152600401611ab190612f91565b60405180910390fd5b81600360008573ffffffffffffffffffffffffffffffffffffffff1673ffffffffffffffffffffffffffffffffffffffff16815260200190815260200160002060006101000a81548163ffffffff021916908363ffffffff16021790555080600560008573ffffffffffffffffffffffffffffffffffffffff1673ffffffffffffffffffffffffffffffffffffffff168152602001908152602001600020819055508273ffffffffffffffffffffffffffffffffffffffff167faba09d491d88bf0ee0f8fc8f0168c0178e7210f18b5f524e052a72f550c4474a60405160405180910390a2505050565b6000600460003373ffffffffffffffffffffffffffffffffffffffff1673ffffffffffffffffffffffffffffffffffffffff16815260200190815260200160002060009054906101000a900463ffffffff1663ffffffff1611611c0657600080fd5b60008163ffffffff1611611c4f576040517f08c379a0000000000000000000000000000000000000000000000000000000008152600401611c469061258d565b60405180910390fd5b6000600360008473ffffffffffffffffffffffffffffffffffffffff1673ffffffffffffffffffffffffffffffffffffffff16815260200190815260200160002060009054906101000a900463ffffffff1663ffffffff1611611ce7576040517f08c379a0000000000000000000000000000000000000000000000000000000008152600401611cde90613023565b60405180910390fd5b600260008373ffffffffffffffffffffffffffffffffffffffff1673ffffffffffffffffffffffffffffffffffffffff16815260200190815260200160002060006101000a81549063ffffffff0219169055600560008373ffffffffffffffffffffffffffffffffffffffff1673ffffffffffffffffffffffffffffffffffffffff168152602001908152602001600020600090558173ffffffffffffffffffffffffffffffffffffffff167f769268709e630d5b24d4c651adeae2d7a75c3dd7c3876275233e21570be22fd460405160405180910390a25050565b60056020528060005260406000206000915090505481565b60606001805480602002602001604051908101604052809291908181526020016000905b82821015611f5c57838290600052602060002090600402016040518060e00160405290816000820160009054906101000a900473ffffffffffffffffffffffffffffffffffffffff1673ffffffffffffffffffffffffffffffffffffffff1673ffffffffffffffffffffffffffffffffffffffff1681526020016000820160149054906101000a900463ffffffff1663ffffffff1663ffffffff1681526020016000820160189054906101000a900463ffffffff1663ffffffff1663ffffffff1681526020016001820160009054906101000a900467ffffffffffffffff1667ffffffffffffffff1667ffffffffffffffff1681526020016001820160089054906101000a900467ffffffffffffffff1667ffffffffffffffff1667ffffffffffffffff168152602001600282015481526020016003820160009054906101000a900460ff16151515158152505081526020019060010190611dff565b50505050905090565b60008173ffffffffffffffffffffffffffffffffffffffff16319050919050565b60046020528060005260406000206000915054906101000a900463ffffffff1681565b8067ffffffffffffffff16341015611ff6576040517f08c379a0000000000000000000000000000000000000000000000000000000008152600401611fed9061308f565b60405180910390fd5b8173ffffffffffffffffffffffffffffffffffffffff166108fc349081150290604051600060405180830381858888f1935050505015801561203c573d6000803e3d6000fd5b505050565b600080fd5b600073ffffffffffffffffffffffffffffffffffffffff82169050919050565b600061207182612046565b9050919050565b61208181612066565b811461208c57600080fd5b50565b60008135905061209e81612078565b92915050565b6000602082840312156120ba576120b9612041565b5b60006120c88482850161208f565b91505092915050565b600063ffffffff82169050919050565b6120ea816120d1565b82525050565b600060208201905061210560008301846120e1565b92915050565b612114816120d1565b811461211f57600080fd5b50565b6000813590506121318161210b565b92915050565b6000806040838503121561214e5761214d612041565b5b600061215c8582860161208f565b925050602061216d85828601612122565b9150509250929050565b6000819050919050565b61218a81612177565b811461219557600080fd5b50565b6000813590506121a781612181565b92915050565b6000806000606084860312156121c6576121c5612041565b5b60006121d48682870161208f565b93505060206121e586828701612122565b92505060406121f686828701612198565b9150509250925092565b600067ffffffffffffffff82169050919050565b61221d81612200565b811461222857600080fd5b50565b60008135905061223a81612214565b92915050565b60008060006060848603121561225957612258612041565b5b60006122678682870161208f565b93505060206122788682870161222b565b925050604061228986828701612122565b9150509250925092565b6000806000606084860312156122ac576122ab612041565b5b60006122ba86828701612122565b93505060206122cb8682870161222b565b92505060406122dc8682870161222b565b9150509250925092565b6122ef81612066565b82525050565b600060208201905061230a60008301846122e6565b92915050565b6000806040838503121561232757612326612041565b5b60006123358582860161208f565b925050602061234685828601612198565b9150509250929050565b61235981612177565b82525050565b60006020820190506123746000830184612350565b92915050565b600081519050919050565b600082825260208201905092915050565b6000819050602082019050919050565b6123af81612066565b82525050565b6123be816120d1565b82525050565b6123cd81612200565b82525050565b6123dc81612177565b82525050565b60008115159050919050565b6123f7816123e2565b82525050565b60e08201600082015161241360008501826123a6565b50602082015161242660208501826123b5565b50604082015161243960408501826123b5565b50606082015161244c60608501826123c4565b50608082015161245f60808501826123c4565b5060a082015161247260a08501826123d3565b5060c082015161248560c08501826123ee565b50505050565b600061249783836123fd565b60e08301905092915050565b6000602082019050919050565b60006124bb8261237a565b6124c58185612385565b93506124d083612396565b8060005b838110156125015781516124e8888261248b565b97506124f3836124a3565b9250506001810190506124d4565b5085935050505092915050565b6000602082019050818103600083015261252881846124b0565b905092915050565b600082825260208201905092915050565b7f50726f7669646520612076616c6964204944206e756d62657200000000000000600082015250565b6000612577601983612530565b915061258282612541565b602082019050919050565b600060208201905081810360008301526125a68161256a565b9050919050565b7f5573657220697320616c7265616479207265676973746572656420617320616760008201527f656e740000000000000000000000000000000000000000000000000000000000602082015250565b6000612609602383612530565b9150612614826125ad565b604082019050919050565b60006020820190508181036000830152612638816125fc565b9050919050565b7f5573657220697320616c7265616479207265676973746572656420617320707260008201527f6f64756365720000000000000000000000000000000000000000000000000000602082015250565b600061269b602683612530565b91506126a68261263f565b604082019050919050565b600060208201905081810360008301526126ca8161268e565b9050919050565b7f54686520626964207769746820746869732073657269616c20646f6573206e6f60008201527f7420657869737400000000000000000000000000000000000000000000000000602082015250565b600061272d602783612530565b9150612738826126d1565b604082019050919050565b6000602082019050818103600083015261275c81612720565b9050919050565b7f4e487b7100000000000000000000000000000000000000000000000000000000600052603260045260246000fd5b7f546869732070726f647563657220646f65736e2774206f776e2074686973206260008201527f6964000000000000000000000000000000000000000000000000000000000000602082015250565b60006127ee602283612530565b91506127f982612792565b604082019050919050565b6000602082019050818103600083015261281d816127e1565b9050919050565b7f43616e206e6f742062757920656e65726779206265666f7265206f666665726960008201527f6e67206974000000000000000000000000000000000000000000000000000000602082015250565b6000612880602583612530565b915061288b82612824565b604082019050919050565b600060208201905081810360008301526128af81612873565b9050919050565b7f5468652062696420646f6573206e6f7420686176652073756666696369656e7460008201527f20656e6572677900000000000000000000000000000000000000000000000000602082015250565b6000612912602783612530565b915061291d826128b6565b604082019050919050565b6000602082019050818103600083015261294181612905565b9050919050565b7f596f7520646964206e6f742061736b20666f72206d696e696d756d20616d6f7560008201527f74206f6620656e65726779000000000000000000000000000000000000000000602082015250565b60006129a4602b83612530565b91506129af82612948565b604082019050919050565b600060208201905081810360008301526129d381612997565b9050919050565b7f4e487b7100000000000000000000000000000000000000000000000000000000600052601160045260246000fd5b6000612a1482612200565b9150612a1f83612200565b92508167ffffffffffffffff0483118215151615612a4057612a3f6129da565b5b828202905092915050565b7f446f206e6f74206861766520656e6f75676820657468657220696e20796f757260008201527f206163636f756e74000000000000000000000000000000000000000000000000602082015250565b6000612aa7602883612530565b9150612ab282612a4b565b604082019050919050565b60006020820190508181036000830152612ad681612a9a565b9050919050565b6000612ae882612177565b9150612af383612177565b9250827fffffffffffffffffffffffffffffffffffffffffffffffffffffffffffffffff03821115612b2857612b276129da565b5b828201905092915050565b6000612b3e82612177565b9150612b4983612177565b925082821015612b5c57612b5b6129da565b5b828203905092915050565b7f446f6e277420686176652074686973206d75636820656e6572677920746f206f60008201527f6666657200000000000000000000000000000000000000000000000000000000602082015250565b6000612bc3602483612530565b9150612bce82612b67565b604082019050919050565b60006020820190508181036000830152612bf281612bb6565b9050919050565b7f4861766520746f206f66666572206d696e696d756d20656e65726779206f666660008201527f6572000000000000000000000000000000000000000000000000000000000000602082015250565b6000612c55602283612530565b9150612c6082612bf9565b604082019050919050565b60006020820190508181036000830152612c8481612c48565b9050919050565b612c9481612200565b82525050565b6000604082019050612caf6000830185612c8b565b612cbc6020830184612c8b565b9392505050565b6000612cce826120d1565b9150612cd9836120d1565b92508263ffffffff03821115612cf257612cf16129da565b5b828201905092915050565b7f55736572206973206e6f7420726567697374657265642079657420617320636f60008201527f6e73756d65720000000000000000000000000000000000000000000000000000602082015250565b6000612d59602683612530565b9150612d6482612cfd565b604082019050919050565b60006020820190508181036000830152612d8881612d4c565b9050919050565b7f496e7365727420612076616c69642070726f647563657227732061646472657360008201527f7300000000000000000000000000000000000000000000000000000000000000602082015250565b6000612deb602183612530565b9150612df682612d8f565b604082019050919050565b60006020820190508181036000830152612e1a81612dde565b9050919050565b7f496e736572742061206d696e696d756d20656e6572677920746f206164640000600082015250565b6000612e57601e83612530565b9150612e6282612e21565b602082019050919050565b60006020820190508181036000830152612e8681612e4a565b9050919050565b7f55736572206973206e6f7420726567697374657265642079657420617320616760008201527f656e740000000000000000000000000000000000000000000000000000000000602082015250565b6000612ee9602383612530565b9150612ef482612e8d565b604082019050919050565b60006020820190508181036000830152612f1881612edc565b9050919050565b7f5573657220697320616c7265616479207265676973746572656420617320636f60008201527f6e73756d65720000000000000000000000000000000000000000000000000000602082015250565b6000612f7b602683612530565b9150612f8682612f1f565b604082019050919050565b60006020820190508181036000830152612faa81612f6e565b9050919050565b7f55736572206973206e6f7420726567697374657265642079657420617320707260008201527f6f64756365720000000000000000000000000000000000000000000000000000602082015250565b600061300d602683612530565b915061301882612fb1565b604082019050919050565b6000602082019050818103600083015261303c81613000565b9050919050565b7f446964206e6f742073656e6420656e6f75676820657468657200000000000000600082015250565b6000613079601983612530565b915061308482613043565b602082019050919050565b600060208201905081810360008301526130a88161306c565b905091905056fea2646970667358221220edc358fe63c410a127c1d220efec6c342c58349d1bc1a0d6f4eada1344dc1bcb64736f6c634300080d0033",
  "immutableReferences": {},
  "source": "//SPDX-License-Identifier: GPL-3.0\n\npragma solidity ^0.8.0;\n\ncontract Energy {\n    address public owner;\n\n    constructor() {\n        owner = msg.sender;\n        agents[owner] = 1;\n    }\n\n    uint32 private bidId = 0;\n    uint32 private asksId = 0;\n\n    struct Bid{\n        address producer;\n        uint32 serial;\n        uint32 pricePerUnit;\n        uint64 maxEnergy;\n        uint64 minEnergy;\n        uint256 timestamp;\n        bool isSold;\n    }\n\n    Bid[] private bids;\n\n    //map address to producerID\n    mapping(address => uint32) public producers;\n    mapping(address => uint32) public consumers;\n    mapping(address => uint32) public agents;\n\n    mapping(address => uint256) public userEnergyBalance;\n\n    event agentRegistered(address indexed owner);\n    event agentDeregistered(address indexed owner);\n\n    event producerRegistered(address indexed producer);\n    event producerDeregistered(address indexed producer);\n\n    event consumerRegistered(address indexed consumer);\n    event consumerDeregistered(address indexed consumer);\n\n    event BidMade(address indexed producer, uint64 maxEnergy, uint64 minEnergy, uint32 indexed pricePerUnit);\n    event DealMade(address indexed consumer, uint64 indexed Energy, uint64 indexed totalPrice, address producer);\n\n    event producerBalanceIncreased(address indexed producer, uint256 indexed addedEnergy);\n\n    modifier onlyOwner() {\n        require(msg.sender == owner);\n        _;\n    }\n\n    modifier onlyRegisteredAgents() {\n        require(agents[msg.sender]>0);\n        _;\n    }\n\n    modifier onlyRegisteredProducers() {\n        require(producers[msg.sender]>0);\n        _;\n    }\n\n    modifier onlyRegisteredConsumers() {\n        require(consumers[msg.sender]>0);\n        _;\n    }\n\n//agent-registry\n//the agentId=1 is taken by the owner. so, the later agents will get ID starting from 2 \n    function registerAgents(address _agent, uint32 _id) public onlyOwner{\n        require(_id > 1,\"Provide a valid ID number\");\n        require(agents[_agent]==0,\"User is already registered as agent\");\n        agents[_agent]=_id;\n        emit agentRegistered(_agent);\n    }\n    function deRegisterAgents(address _agent, uint32 _id) public onlyOwner{\n        require(_id > 1,\"Provide a valid ID number\");\n        require(agents[_agent]!=0,\"User is not registered yet as agent\");\n        delete agents[_agent];\n        emit agentDeregistered(_agent);\n    }\n\n\n    function registerConsumer(address _consumer, uint32 _id, uint256 _energyBalance) public onlyRegisteredAgents{\n        require(_id >0, \"Provide a valid ID number\");\n        require(consumers[_consumer]==0, \"User is already registered as consumer\");\n        consumers[_consumer] = _id;\n        userEnergyBalance[_consumer] = _energyBalance;\n        emit consumerRegistered(_consumer);\n    }\n    function deRegisterConsumer(address _consumer, uint32 _id) public onlyRegisteredAgents{\n        require(_id >0, \"Provide a valid ID number\");\n        require(consumers[_consumer]>0, \"User is not registered yet as consumer\");\n        delete consumers[_consumer];\n        delete userEnergyBalance[_consumer];\n        emit consumerRegistered(_consumer);\n    }\n\n    function registerProducer(address _producer, uint32 _id, uint256 _energyBalance) public onlyRegisteredAgents{\n        require(_id >0, \"Provide a valid ID number\");\n        require(consumers[_producer]==0, \"User is already registered as producer\");\n        producers[_producer] = _id;\n        userEnergyBalance[_producer] = _energyBalance;\n        emit producerRegistered(_producer);\n    }\n    function deRegisterProducer(address _producer, uint32 _id) public onlyRegisteredAgents{\n        require(_id >0, \"Provide a valid ID number\");\n        require(consumers[_producer]>0, \"User is not registered yet as producer\");\n        delete producers[_producer];\n        delete userEnergyBalance[_producer];\n        emit producerRegistered(_producer);\n    }\n\n\n    function AddEnergy(address _producer, uint256 _balanceAmount) public onlyRegisteredAgents{\n        require(producers[_producer]>0,\"Insert a valid producer's address\");\n        require(_balanceAmount>0,\"Insert a minimum energy to add\");\n        userEnergyBalance[_producer]+=_balanceAmount;\n        emit producerBalanceIncreased(_producer, _balanceAmount);\n    }\n\n    function OfferEnergy(\n        uint32 _price,\n        uint64 _maxEnergy,\n        uint64 _minEnergy\n    ) public onlyRegisteredProducers{\n        require(_maxEnergy<=userEnergyBalance[msg.sender],\"Don't have this much energy to offer\");\n        require(_minEnergy>0,\"Have to offer minimum energy offer\");\n\n//cutting of the amount from the producer so that he can not double offer the same energy.\n        userEnergyBalance[msg.sender] -= _maxEnergy;\n\n        bids.push(\n            Bid({\n                producer : msg.sender,\n                serial: bidId,//it is same as the index number of this bid in \"bids\" array.\n                //using this serial later we can access any information of this bid from anywhere.\n                pricePerUnit : _price,\n                maxEnergy : _maxEnergy,\n                minEnergy : _minEnergy,\n                timestamp : block.timestamp,\n                isSold : false\n            })\n        );\n\n        emit BidMade(bids[bidId].producer, bids[bidId].maxEnergy,bids[bidId].minEnergy,bids[bidId].pricePerUnit);\n        bidId +=1;\n    }\n\n    // function Showing Bids\n    function ShowBids() public view returns (Bid[] memory) {\n        return bids;\n    }\n\n\n    function BuyEnergy(\n        address _producer,\n        uint64 _energy,\n        uint32 _bidSerial\n    ) public payable onlyRegisteredConsumers {\n        require(_bidSerial < bids.length,\"The bid with this serial does not exist\");\n        require(bids[_bidSerial].producer == _producer,\"This producer doesn't own this bid\");\n        require(bids[_bidSerial].timestamp <= block.timestamp,\"Can not buy energy before offering it\");\n        require(bids[_bidSerial].maxEnergy >= _energy,\"The bid does not have sufficient energy\");\n        require(_energy >= bids[_bidSerial].minEnergy,\"You did not ask for minimum amout of energy\");\n        require(bids[_bidSerial].isSold == false,\"The bid does not have sufficient energy\");\n        uint64 totalPrice = bids[_bidSerial].pricePerUnit*_energy;\n        require((msg.sender).balance > totalPrice,\"Do not have enough ether in your account\");\n\n//energy transfer\n        userEnergyBalance[_producer] += bids[_bidSerial].maxEnergy;\n        userEnergyBalance[msg.sender] += _energy;\n        userEnergyBalance[_producer] -= _energy;\n\n//balance transfer\n        sendEther(_producer, totalPrice);\n        \n        emit DealMade( msg.sender, _energy, totalPrice, _producer);\n    }\n\n    function sendEther(address _producer, uint64 _totalPrice) internal{\n        require(msg.value >= _totalPrice,\"Did not send enough ether\");\n        payable(_producer).transfer(msg.value);\n    }\n\n    function getBalance(address _account) public view returns(uint){\n        return (_account).balance;\n    }\n\n}\n\n// contract address:    0xcd33DA6007f18897a5510A04475A2Ee08e172d22\n// account:             0x1f5160545CF297f164d933D1E00D060cb077D6b7\n\n//sepolia:\n//    > contract address:    0x817cB1b69f3E6caed281aC9573675CDa896f0c3a\n//    > block number:        4821685\n//    > block timestamp:     1701707556\n//    > account:             0xeCbc9da4d09A4a5059e6f119444e0CF04288F9ad",
  "sourcePath": "/Users/shekhshihabuddin/Desktop/Tools/EnergyTrade/contracts/Energy.sol",
  "compiler": {
    "name": "solc",
    "version": "0.8.13+commit.abaa5c0e.Emscripten.clang"
  },
  "schemaVersion": "3.4.16",
  "updatedAt": "2023-12-04T18:00:28.333Z",
  "networkType": "ethereum",
  "devdoc": {
    "kind": "dev",
    "methods": {},
    "version": 1
  },
  "userdoc": {
    "kind": "user",
    "methods": {},
    "version": 1
  }
}